:020000040000fa
:080000000002040000000000f2
:020000040000fa
:04000800ca07000023
:020000040000fa
:04000c00dc0800000c
:020000040000fa
:040010008a0500005d
:020000040000fa
:04001400ee090000f1
:020000040000fa
:04001800000b0000d9
:020000040000fa
:04001c007603000067
:020000040000fa
:040020009406000042
:020000040000fa
:040024008004000054
:020000040000fa
:04002800e40f0000e1
:020000040000fa
:04002c005a10000066
:020000040000fa
:040030005a10000062
:020000040000fa
:040034004610000072
:020000040000fa
:040038005a1000005a
:020000040000fa
:04003c005a10000056
:020000040000fa
:040040005a10000052
:020000040000fa
:040044004a1000005e
:020000040000fa
:040048004e10000056
:020000040000fa
:04004c005a10000046
:020000040000fa
:040050005a10000042
:020000040000fa
:04005400120c00008a
:020000040000fa
:040058007e0d000019
:020000040000fa
:04005c005a10000036
:020000040000fa
:040060005a10000032
:020000040000fa
:040064005a1000002e
:020000040000fa
:040068005a1000002a
:020000040000fa
:04006c005a10000026
:020000040000fa
:040070005a10000022
:020000040000fa
:04007400e00f000099
:020000040000fa
:04007800e80f00008d
:020000040000fa
:04007c005a10000016
:020000040000fa
:040080005a10000012
:020000040000fa
:040084005a1000000e
:020000040000fa
:040088005a1000000a
:020000040000fa
:04008c005a10000006
:020000040000fa
:040090005a10000002
:020000040000fa
:040094005210000006
:020000040000fa
:0400980056100000fe
:020000040000fa
:04009c00ec0f000065
:020000040000fa
:0400a0005a100000f2
:020000040000fa
:0400a4005a100000ee
:020000040000fa
:0400a8005a100000ea
:020000040000fa
:0400ac005a100000e6
:020000040000fa
:0400b0005a100000e2
:020000040000fa
:0400b4005a100000de
:020000040000fa
:0400b8005a100000da
:020000040000fa
:0400bc005a100000d6
:020000040000fa
:0400c0005a100000d2
:020000040000fa
:0400c4005a100000ce
:020000040000fa
:0400c8005a100000ca
:020000040000fa
:0400cc005a100000c6
:020000040000fa
:0400d0005a100000c2
:020000040000fa
:0400d4005a100000be
:020000040000fa
:0400d8005a100000ba
:020000040000fa
:0400dc005a100000b6
:020000040000fa
:0400e0005a100000b2
:020000040000fa
:0400e4005a100000ae
:020000040000fa
:0400e8005a100000aa
:020000040000fa
:0400ec005a100000a6
:020000040000fa
:0400f0005a100000a2
:020000040000fa
:0400f4005a1000009e
:020000040000fa
:0400f8005a1000009a
:020000040000fa
:0400fc005a10000096
:020000040000fa
:04010000f00f0000fc
:020000040000fa
:040104005a1000008d
:020000040000fa
:040108005a10000089
:020000040000fa
:04010c00f40f0000ec
:020000040000fa
:040110005a10000081
:020000040000fa
:040114005a1000007d
:020000040000fa
:040118005a10000079
:020000040000fa
:04011c005a10000075
:020000040000fa
:040120005a10000071
:020000040000fa
:040124005a1000006d
:020000040000fa
:040128005a10000069
:020000040000fa
:04012c005a10000065
:020000040000fa
:040130005a10000061
:020000040000fa
:040134005a1000005d
:020000040000fa
:040138005a10000059
:020000040000fa
:04013c005a10000055
:020000040000fa
:040140005a10000051
:020000040000fa
:040144005a1000004d
:020000040000fa
:040148005a10000049
:020000040000fa
:04014c00021000009d
:020000040000fa
:040150005a10000041
:020000040000fa
:040154005a1000003d
:020000040000fa
:040158005a10000039
:020000040000fa
:04015c005a10000035
:020000040000fa
:040160005a10000031
:020000040000fa
:040164005a1000002d
:020000040000fa
:040168005a10000029
:020000040000fa
:04016c005a10000025
:020000040000fa
:040170005a10000021
:020000040000fa
:040174005a1000001d
:020000040000fa
:040178005a10000019
:020000040000fa
:04017c005a10000015
:020000040000fa
:040180005a10000011
:020000040000fa
:040184005a1000000d
:020000040000fa
:040188005a10000009
:020000040000fa
:04018c005a10000005
:020000040000fa
:040190005a10000001
:020000040000fa
:040194005a100000fd
:020000040000fa
:040198005a100000f9
:020000040000fa
:04019c005a100000f5
:020000040000fa
:0401a0000c1000003f
:020000040000fa
:0401a4002a1000001d
:020000040000fa
:0401a8002e10000015
:020000040000fa
:0401ac00321000000d
:020000040000fa
:0401b0003610000005
:020000040000fa
:0401b4003a100000fd
:020000040000fa
:0401b8003e100000f5
:020000040000fa
:0401bc0042100000ed
:020000040000fa
:0401c0005a100000d1
:020000040000fa
:0401c4005a100000cd
:020000040000fa
:0401c8005a100000c9
:020000040000fa
:0401cc005a100000c5
:020000040000fa
:0401d0005a100000c1
:020000040000fa
:0401d4005a100000bd
:020000040000fa
:0401d8005a100000b9
:020000040000fa
:0401dc005a100000b5
:020000040000fa
:0401e000c20d00004c
:020000040000fa
:0401e400d40d000036
:020000040000fa
:0401e800ea0d00001c
:020000040000fa
:0401ec00fc0d000006
:020000040000fa
:0401f000280e0000d5
:020000040000fa
:0401f4003e0e0000bb
:020000040000fa
:0401f800540e0000a1
:020000040000fa
:0401fc006a0e000087
:020000040000fa
:040200005a10000090
:020000040000fa
:040204005a1000008c
:020000040000fa
:040208005a10000088
:020000040000fa
:04020c005a10000084
:020000040000fa
:040210005a10000080
:020000040000fa
:040214005a1000007c
:020000040000fa
:040218005a10000078
:020000040000fa
:04021c005a10000074
:020000040000fa
:040220005a10000070
:020000040000fa
:040224005a1000006c
:020000040000fa
:040228005a10000068
:020000040000fa
:04022c005a10000064
:020000040000fa
:040230005a10000060
:020000040000fa
:040234005a1000005c
:020000040000fa
:040238005a10000058
:020000040000fa
:04023c005a10000054
:020000040000fa
:040240005a10000050
:020000040000fa
:040244005a1000004c
:020000040000fa
:040248005a10000048
:020000040000fa
:04024c005a10000044
:020000040000fa
:040250005a10000040
:020000040000fa
:040254005a1000003c
:020000040000fa
:040258005a10000038
:020000040000fa
:04025c005a10000034
:020000040000fa
:040260005a10000030
:020000040000fa
:040264005a1000002c
:020000040000fa
:040268005a10000028
:020000040000fa
:04026c005a10000024
:020000040000fa
:040270005a10000020
:020000040000fa
:040274005a1000001c
:020000040000fa
:040278005a10000018
:020000040000fa
:04027c005a10000014
:020000040000fa
:040280005a10000010
:020000040000fa
:04028400800e0000e8
:020000040000fa
:04028800960e0000ce
:020000040000fa
:04028c00ac0e0000b4
:020000040000fa
:04029000c20e00009a
:020000040000fa
:04029400d80e000080
:020000040000fa
:04029800ee0e000066
:020000040000fa
:04029c00040f00004b
:020000040000fa
:0402a0001a0f000031
:020000040000fa
:0402a400300f000017
:020000040000fa
:0402a800460f0000fd
:020000040000fa
:0402ac005c0f0000e3
:020000040000fa
:0402b000720f0000c9
:020000040000fa
:0402b400880f0000af
:020000040000fa
:0402b8009e0f000095
:020000040000fa
:0402bc005a100000d4
:020000040000fa
:0402c0005a100000d0
:020000040000fa
:0402c4005a100000cc
:020000040000fa
:0402c8005a100000c8
:020000040000fa
:0402cc005a100000c4
:020000040000fa
:0402d0005a100000c0
:020000040000fa
:0402d4005a100000bc
:020000040000fa
:0402d8005a100000b8
:020000040000fa
:0402dc005a100000b4
:020000040000fa
:0402e0005a100000b0
:020000040000fa
:0402e4005a100000ac
:020000040000fa
:0402e8005a100000a8
:020000040000fa
:0402ec00b40f00004b
:020000040000fa
:0402f000ce0f00002d
:020000040000fa
:0402f400d80f00001f
:020000040000fa
:0402f800dc0f000017
:020000040000fa
:0402fc005a10000094
:020000040000fa
:040300005a1000008f
:020000040000fa
:040304005a1000008b
:020000040000fa
:040308005a10000087
:020000040000fa
:04030c005a10000083
:020000040000fa
:040310005a1000007f
:020000040000fa
:040314005a1000007b
:020000040000fa
:040318005a10000077
:020000040000fa
:04031c005a10000073
:020000040000fa
:040320005a1000006f
:020000040000fa
:10040000cf392100eefd22000e018800000000001f
:10041000000020000000e000020032000001200087
:100420002002880014000700240707000000e000f5
:1004300003003a0040db23000100200002003700e7
:100440000000200001002000810f70000100320038
:100450000f000700000020000000e0000200320052
:100460000000020000000000ee400200000000005a
:100470000040da000000fe00200020000000e00044
:1004800002003200100020009001880000000600e9
:10049000a1028800800478000000eb001f003700f4
:1004a000e284440054a0b4009905ba00e2844400f8
:1004b00054a0b4009906ba00e284440054a0b400e9
:1004c0000006eb00476fde00fd07b200ae018800ba
:1004d000636ce10003003a000ad801000000eb0061
:1004e0000e003700606ce10008003a00004deb00a0
:1004f0000a05e800020039003420ec000af0a000f0
:100500008b05e900f9ff3e00040037006168e10057
:10051000010032000086eb000b00070019c7ba008b
:100520000e04e0001905ba0003003a000a00e000da
:10053000dbff3a0000000600fe07b200ae028800b2
:100540008a047800f5ff37000cd0a300e20f4d00bd
:100550001c00390089027800354dba000a05e80010
:10056000020039003420ec000af0a0008b05e900fd
:100570000f003200254dba000a05e80002003900dc
:100580003420ec000af0a0008b05e90008003200de
:100590000c00e0000600320015cdba000a05e800a4
:1005a000020039003420ec000af0a0008b05e900bd
:1005b0008984e80054a0b4000b00e000e2ff3a0098
:1005c000000006009902ba00055d78008b05e9007d
:1005d000f7ff3200c82ade00055d78008b05e900d0
:1005e000f3ff32000c00e000f1ff320019ddba0029
:1005f000eeff3700f4480400000000005e480400ed
:10060000000000008048040000000000ba48040018
:10061000000000003a290400000000000845040022
:10062000000000004c48040000000000c84704001f
:10063000000000009645040000000000b0440400e3
:10064000000000003848040000000000ba47040021
:10065000000000009e47040000000000a2470400c4
:1006600000000000a64704000000000066450400ea
:100670000000000032450400000000003e45040078
:10068000000000004a450400000000005023040060
:100690000000000008200400000000006c3a040084
:1006a00000000000c63b040000000000a445040058
:1006b00000000000f645040000000000d8410400de
:1006c000000000006a420400000000009a330400a9
:1006d000000000000434040000000000284404006e
:1006e00000000000a048040000000000809fbe0041
:1006f000829fbe000400fa00009c800000e0a00081
:10070000009c8800c608a9006000b800e0bf9f00f8
:10071000f1bf9f0041468000219c88000008200016
:10072000f09b8800e09b80000000e800e09b8800d0
:1007300001eca90002122a00730020000000000052
:100740000000000000000000e2bf9f00f3bf9f0018
:100750006fb89700ffb89700e00f5000e08f580087
:100760000b0032006fb89700ffb89700610050008f
:10077000e0805800e0bf9f00f1bf9f006fb8970076
:10078000ffb89700e00f5000e08f5800f5ff3a00e7
:10079000e2bf9f00f3bf9f006fb89700ffb89700bc
:1007a000e00f5000e08f58000b0032006fb8970048
:1007b000ffb8970061005000e0805800e0bf9f0044
:1007c000f1bf9f006fb89700ffb89700e00f50008f
:1007d000e08f5800f5ff3a00e2bf9f00f3bf9f0093
:1007e0006fb89700ffb89700e00f5000e08f5800f7
:1007f0000b0032006fb89700ffb8970061005000ff
:10080000e0805800e0bf9f00f1bf9f006fb89700e5
:10081000ffb89700e00f5000e08f5800f5ff3a0056
:10082000e2bf9f00f3bf9f006fb89700ffb897002b
:10083000e00f5000e08f58000b0032006fb89700b7
:10084000ffb8970061005000e0805800e0bf9f00b3
:10085000f1bf9f006fb89700ffb89700e00f5000fe
:10086000e08f5800f5ff3a0021718000ce08de00cd
:100870008180ea00e1806000ce08dd002071800008
:1008800000e0a1000080700020718800a17180004c
:10089000cb08de008180ea00e1806000cb08dd004b
:1008a000a071800000b0a10000807000a0718800dd
:1008b000a1718000ca08de008180ea00e18060004a
:1008c000ca08dd00a071800000a0a10000807000b7
:1008d000a07188000000000000000000000000007f
:1008e000e2bf9f00f3bf9f006fb89700ffb897006b
:1008f000e00f5000e08f58009aff3a00a4ff370045
:10090000809fbe00829fbe000400fa00009c800011
:1009100000e0a000009c8800c608a9006000b800a4
:10092000e0bf9f00f1bf9f0041468000219c8800ee
:1009300000082000f09b8800e09b80000000e80099
:10094000e09b880001eca90002122a00730020003d
:10095000000000000000000000000000e2bf9f0057
:10096000f3bf9f006fb89700ffb89700e00f5000eb
:10097000e08f58000b0032006fb89700ffb8970067
:1009800061005000e0805800e0bf9f00f1bf9f0071
:100990006fb89700ffb89700e00f5000e08f580045
:1009a000f5ff3a00e2bf9f00f3bf9f006fb89700ca
:1009b000ffb89700e00f5000e08f58000b003200a6
:1009c0006fb89700ffb8970061005000e0805800b2
:1009d000e0bf9f00f1bf9f006fb89700ffb897007e
:1009e000e00f5000e08f5800f5ff3a00e2bf9f0093
:1009f000f3bf9f006fb89700ffb89700e00f50005b
:100a0000e08f58000b0032006fb89700ffb89700d6
:100a100061005000e0805800e0bf9f00f1bf9f00e0
:100a20006fb89700ffb89700e00f5000e08f5800b4
:100a3000f5ff3a00e2bf9f00f3bf9f006fb8970039
:100a4000ffb89700e00f5000e08f58000b00320015
:100a50006fb89700ffb8970061005000e080580021
:100a6000e0bf9f00f1bf9f006fb89700ffb89700ed
:100a7000e00f5000e08f5800f5ff3a002171800030
:100a8000ce08de008180ea00e1806000ce08dd0053
:100a90002071800000e0a1000080700020718800bb
:100aa000a1718000cb08de008180ea00e180600057
:100ab000cb08dd00a071800000b0a10000807000b4
:100ac000a0718800a1718000ca08de008180ea0060
:100ad000e1806000ca08dd00a071800000a0a100d4
:100ae00000807000a071880000000000000000007d
:100af00000000000e2bf9f00f3bf9f006fb89700a7
:100b0000ffb89700e00f5000e08f58009aff3a00be
:100b1000a4ff3700809fbe00829fbe000400fa0041
:100b2000009c800000e0a000009c8800c608a9008e
:100b30006000b800e0bf9f00f1bf9f004146800009
:100b4000219c880000042000f09b8800e09b80002e
:100b50000000e800e09b880001eca90002122a00d6
:100b600073002000000000000000000000000000f2
:100b7000e2bf9f00f3bf9f006fb89700ffb89700d8
:100b8000e00f5000e08f58000b0032006fb8970064
:100b9000ffb8970061005000e0805800e0bf9f0060
:100ba000f1bf9f006fb89700ffb89700e00f5000ab
:100bb000e08f5800f5ff3a00e2bf9f00f3bf9f00af
:100bc0006fb89700ffb89700e00f5000e08f580013
:100bd0000b0032006fb89700ffb89700610050001b
:100be000e0805800e0bf9f00f1bf9f006fb8970002
:100bf000ffb89700e00f5000e08f5800f5ff3a0073
:100c0000e2bf9f00f3bf9f006fb89700ffb8970047
:100c1000e00f5000e08f58000b0032006fb89700d3
:100c2000ffb8970061005000e0805800e0bf9f00cf
:100c3000f1bf9f006fb89700ffb89700e00f50001a
:100c4000e08f5800f5ff3a00e2bf9f00f3bf9f001e
:100c50006fb89700ffb89700e00f5000e08f580082
:100c60000b0032006fb89700ffb89700610050008a
:100c7000e0805800e0bf9f00f1bf9f006fb8970071
:100c8000ffb89700e00f5000e08f5800f5ff3a00e2
:100c900021718000ce08de008180ea00e1806000e2
:100ca000ce08dd002071800000e0a100008070000f
:100cb00020718800a1718000cb08de008180ea00ed
:100cc000e1806000cb08dd00a071800000b0a100d1
:100cd00000807000a0718800a1718000ca08de0049
:100ce0008180ea00e1806000ca08dd00a071800018
:100cf00000a0a10000807000a0718800000000002a
:100d00000000000000000000e2bf9f00f3bf9f0052
:100d10006fb89700ffb89700e00f5000e08f5800c1
:100d20009aff3a00a4ff3700809fbe00829fbe005a
:100d30000400fa0021468000c808de00e18060005f
:100d4000cb08dd00009c800000b0a1000080700096
:100d5000009c8800c508a90021468000c408de0068
:100d6000e1806000cc08dd00009c800000c0a10094
:100d700000807000009c8800c488a9002146800083
:100d8000e1806000cd08dd00009c800000d0a10063
:100d900000807000009c8800c408a9006000b800b2
:100da000e0bf9f00f1bf9f0041468000219c88006a
:100db00000022000f09b8800e09b80000000e8001b
:100dc000e09b880001eca90002122a0073002000b9
:100dd000000000000000000000000000e2bf9f00d3
:100de000f3bf9f006fb89700ffb89700e00f500067
:100df000e08f58000b0032006fb89700ffb89700e3
:100e000061005000e0805800e0bf9f00f1bf9f00ec
:100e10006fb89700ffb89700e00f5000e08f5800c0
:100e2000f5ff3a00e2bf9f00f3bf9f006fb8970045
:100e3000ffb89700e00f5000e08f58000b00320021
:100e40006fb89700ffb8970061005000e08058002d
:100e5000e0bf9f00f1bf9f006fb89700ffb89700f9
:100e6000e00f5000e08f5800f5ff3a00e2bf9f000e
:100e7000f3bf9f006fb89700ffb89700e00f5000d6
:100e8000e08f58000b0032006fb89700ffb8970052
:100e900061005000e0805800e0bf9f00f1bf9f005c
:100ea0006fb89700ffb89700e00f5000e08f580030
:100eb000f5ff3a00e2bf9f00f3bf9f006fb89700b5
:100ec000ffb89700e00f5000e08f58000b00320091
:100ed0006fb89700ffb8970061005000e08058009d
:100ee000e0bf9f00f1bf9f006fb89700ffb8970069
:100ef000e00f5000e08f5800f5ff3a0021718000ac
:100f0000ce08de008180ea00e1806000ce08dd00ce
:100f10002071800000e0a100008070002071880036
:100f2000a1718000cb08de008180ea00e1806000d2
:100f3000cb08dd00a071800000b0a100008070002f
:100f4000a0718800a1718000ca08de008180ea00db
:100f5000e1806000ca08dd00a071800000a0a1004f
:100f600000807000a07188000000000000000000f8
:100f700000000000e2bf9f00f3bf9f006fb8970022
:100f8000ffb89700e00f5000e08f58009aff3a003a
:100f9000a4ff3700809fbe00829fbe000400fa00bd
:100fa000c008d500e1006000c908dd00009c800099
:100fb0000090a10000807000009c8800c028a9005b
:100fc0006000b800e0bf9f00f1bf9f004146800075
:100fd000219c880010002000f09b8800e09b80008e
:100fe0000000e800e09b880001eca90002122a0042
:100ff000730020000000000000000000000000005e
:10100000e2bf9f00f3bf9f006fb89700ffb8970043
:10101000e00f5000e08f58000b0032006fb89700cf
:10102000ffb8970061005000e0805800e0bf9f00cb
:10103000f1bf9f006fb89700ffb89700e00f500016
:10104000e08f5800f5ff3a00e2bf9f00f3bf9f001a
:101050006fb89700ffb89700e00f5000e08f58007e
:101060000b0032006fb89700ffb897006100500086
:10107000e0805800e0bf9f00f1bf9f006fb897006d
:10108000ffb89700e00f5000e08f5800f5ff3a00de
:10109000e2bf9f00f3bf9f006fb89700ffb89700b3
:1010a000e00f5000e08f58000b0032006fb897003f
:1010b000ffb8970061005000e0805800e0bf9f003b
:1010c000f1bf9f006fb89700ffb89700e00f500086
:1010d000e08f5800f5ff3a00e2bf9f00f3bf9f008a
:1010e0006fb89700ffb89700e00f5000e08f5800ee
:1010f0000b0032006fb89700ffb8970061005000f6
:10110000e0805800e0bf9f00f1bf9f006fb89700dc
:10111000ffb89700e00f5000e08f5800f5ff3a004d
:1011200021718000ce08de008180ea00e18060004d
:10113000ce08dd002071800000e0a100008070007a
:1011400020718800a1718000cb08de008180ea0058
:10115000e1806000cb08dd00a071800000b0a1003c
:1011600000807000a0718800a1718000ca08de00b4
:101170008180ea00e1806000ca08dd00a071800083
:1011800000a0a10000807000a07188000000000095
:101190000000000000000000e2bf9f00f3bf9f00be
:1011a0006fb89700ffb89700e00f5000e08f58002d
:1011b0009aff3a00a4ff3700809fbe00829fbe00c6
:1011c0000400fa00004680004400dd000008b20080
:1011d000019c80000170a10001007000009c88004b
:1011e000c068a9006000b800e0bf9f00f1bf9f0089
:1011f00041468000219c880020002000f09b880050
:10120000e09b80000000e800e09b880001eca90062
:1012100002122a00730020000000000000000000fd
:1012200000000000e2bf9f00f3bf9f006fb897006f
:10123000ffb89700e00f5000e08f58000b0032001d
:101240006fb89700ffb8970061005000e080580029
:10125000e0bf9f00f1bf9f006fb89700ffb89700f5
:10126000e00f5000e08f5800f5ff3a00e2bf9f000a
:10127000f3bf9f006fb89700ffb89700e00f5000d2
:10128000e08f58000b0032006fb89700ffb897004e
:1012900061005000e0805800e0bf9f00f1bf9f0058
:1012a0006fb89700ffb89700e00f5000e08f58002c
:1012b000f5ff3a00e2bf9f00f3bf9f006fb89700b1
:1012c000ffb89700e00f5000e08f58000b0032008d
:1012d0006fb89700ffb8970061005000e080580099
:1012e000e0bf9f00f1bf9f006fb89700ffb8970065
:1012f000e00f5000e08f5800f5ff3a00e2bf9f007a
:10130000f3bf9f006fb89700ffb89700e00f500041
:10131000e08f58000b0032006fb89700ffb89700bd
:1013200061005000e0805800e0bf9f00f1bf9f00c7
:101330006fb89700ffb89700e00f5000e08f58009b
:10134000f5ff3a0021718000ce08de008180ea00be
:10135000e1806000ce08dd002071800000e0a10087
:101360000080700020718800a1718000cb08de0031
:101370008180ea00e1806000cb08dd00a071800080
:1013800000b0a10000807000a0718800a1718000f1
:10139000ca08de008180ea00e1806000ca08dd0042
:1013a000a071800000a0a10000807000a0718800e2
:1013b000000000000000000000000000e2bf9f00ed
:1013c000f3bf9f006fb89700ffb89700e00f500081
:1013d000e08f58009aff3a00a4ff3700809fbe00bc
:1013e000829fbe000400fa00004680004600dd0037
:1013f0000010b200019c80000180a100010070007b
:10140000009c8800c048a9006000b800e0bf9f00b1
:10141000f1bf9f0041468000219c880040002000d1
:10142000f09b8800e09b80000000e800e09b8800c3
:1014300001eca90002122a00730020000000000045
:101440000000000000000000e2bf9f00f3bf9f000b
:101450006fb89700ffb89700e00f5000e08f58007a
:101460000b0032006fb89700ffb897006100500082
:10147000e0805800e0bf9f00f1bf9f006fb8970069
:10148000ffb89700e00f5000e08f5800f5ff3a00da
:10149000e2bf9f00f3bf9f006fb89700ffb89700af
:1014a000e00f5000e08f58000b0032006fb897003b
:1014b000ffb8970061005000e0805800e0bf9f0037
:1014c000f1bf9f006fb89700ffb89700e00f500082
:1014d000e08f5800f5ff3a00e2bf9f00f3bf9f0086
:1014e0006fb89700ffb89700e00f5000e08f5800ea
:1014f0000b0032006fb89700ffb8970061005000f2
:10150000e0805800e0bf9f00f1bf9f006fb89700d8
:10151000ffb89700e00f5000e08f5800f5ff3a0049
:10152000e2bf9f00f3bf9f006fb89700ffb897001e
:10153000e00f5000e08f58000b0032006fb89700aa
:10154000ffb8970061005000e0805800e0bf9f00a6
:10155000f1bf9f006fb89700ffb89700e00f5000f1
:10156000e08f5800f5ff3a0021718000ce08de00c0
:101570008180ea00e1806000ce08dd0020718000fb
:1015800000e0a1000080700020718800a17180003f
:10159000cb08de008180ea00e1806000cb08dd003e
:1015a000a071800000b0a10000807000a0718800d0
:1015b000a1718000ca08de008180ea00e18060003d
:1015c000ca08dd00a071800000a0a10000807000aa
:1015d000a071880000000000000000000000000072
:1015e000e2bf9f00f3bf9f006fb89700ffb897005e
:1015f000e00f5000e08f58009aff3a00a4ff370038
:10160000809fbe00829fbe000400fa00004680005a
:101610004200dd000004b200019c80000160a100d6
:1016200001007000009c8800c088a9006000b8001c
:10163000e0bf9f00f1bf9f0041468000219c8800d1
:1016400080002000f09b8800e09b80000000e80004
:10165000e09b880001eca90002122a007300200020
:10166000000000000000000000000000e2bf9f003a
:10167000f3bf9f006fb89700ffb89700e00f5000ce
:10168000e08f58000b0032006fb89700ffb897004a
:1016900061005000e0805800e0bf9f00f1bf9f0054
:1016a0006fb89700ffb89700e00f5000e08f580028
:1016b000f5ff3a00e2bf9f00f3bf9f006fb89700ad
:1016c000ffb89700e00f5000e08f58000b00320089
:1016d0006fb89700ffb8970061005000e080580095
:1016e000e0bf9f00f1bf9f006fb89700ffb8970061
:1016f000e00f5000e08f5800f5ff3a00e2bf9f0076
:10170000f3bf9f006fb89700ffb89700e00f50003d
:10171000e08f58000b0032006fb89700ffb89700b9
:1017200061005000e0805800e0bf9f00f1bf9f00c3
:101730006fb89700ffb89700e00f5000e08f580097
:10174000f5ff3a00e2bf9f00f3bf9f006fb897001c
:10175000ffb89700e00f5000e08f58000b003200f8
:101760006fb89700ffb8970061005000e080580004
:10177000e0bf9f00f1bf9f006fb89700ffb89700d0
:10178000e00f5000e08f5800f5ff3a002171800013
:10179000ce08de008180ea00e1806000ce08dd0036
:1017a0002071800000e0a10000807000207188009e
:1017b000a1718000cb08de008180ea00e18060003a
:1017c000cb08dd00a071800000b0a1000080700097
:1017d000a0718800a1718000ca08de008180ea0043
:1017e000e1806000ca08dd00a071800000a0a100b7
:1017f00000807000a0718800000000000000000060
:1018000000000000e2bf9f00f3bf9f006fb8970089
:10181000ffb89700e00f5000e08f58009aff3a00a1
:10182000a4ff3700809fbe00829fbe00849fbe0041
:101830000400fa000040eb00c0ff9f000000eb0036
:10184000f0bf9f0030118000c0ff9f00a0cab3000e
:10185000cff8970080cf500016003200f08e800045
:101860000048a3000d00320050908000011e2100ae
:1018700000814000cff99700034978000000e8009c
:101880005090880050908000e50f5000900032008a
:101890004ff89700ed4f50001c0032000168a9007e
:1018a0000080fa004f02be004f01be004f00be0094
:1018b00000400600f08e800070006000e7ff3a00f4
:1018c000f18e80000100a100f18e8800110020003f
:1018d00051908800f18e80000140a000f18e8800b8
:1018e00040908800001e2100cff99700034878003f
:1018f0000168a9000080fa004f02be004f01be003f
:101900004f00be0000400600eaff37005290800002
:101910004090800065004000800f5100dfff3600de
:10192000f08e80000048a300dcff3200e0182100a8
:1019300011487800101e210090407800c808dd0092
:101940000000e8001080fb00810070004809dd0005
:10195000708c8000f00fb20000007100708c880065
:101960004809de00808c800001f02f00010060003b
:1019700000007100808c8800351e21001541780020
:101980000502e8004811dd001480fb000201700030
:10199000c811dd00808c8000f00fb2000080710063
:1019a000808c88004811de00908c800081006000ef
:1019b00081007100918c880050002000f0bf9f00d2
:1019c000419080007fb89700e5804000660152009a
:1019d000808f50000f003600231921007fb8970038
:1019e000ffb897008100410000804100a1409000b5
:1019f00041f89f007fb897000000e800f0bf9f000b
:101a0000419080007fb89700e5804000808f5000b3
:101a1000f2ff3e0095407800c808dd001480fb000e
:101a20000100700000004100f040900095417800f6
:101a3000c819dd001480fb000300700000014100a4
:101a400002489000c808dd000080fb0081007000a3
:101a50004809dd00908d8000f00fb2000000710099
:101a6000908d8800c808de00a28d800000f02f0055
:101a70000000610080807000a18d8800501b210053
:101a8000cff8970001487800f08e80000000a00099
:101a9000f08e8800f08e80000020a100f08e88007b
:101aa000f08e80000040a100f08e8800f38e800050
:101ab000338c88000168a9000080fa004f02be0044
:101ac0004f01be004f00be000040060079ff370006
:101ad00063804000104078004800dd0064814000d1
:101ae0001281fb0000007100409088004ff89700c1
:101af000ed4f500069ff3a0084ff3700809fbe0021
:101b0000000000000000000000000000f08e8000d7
:101b10000018a3000e003200c1918000b091800037
:101b200068004000808f50000b003100c0918000a1
:101b3000e11d210080804000817090008180fb00c9
:101b4000311188000000e800c09188000188a900d8
:101b50004f00be0000400600802321000008eb007b
:101b6000f08e80000010a100f08e88001000200090
:101b7000e0918800f08e8000308c88000188a900f8
:101b8000f3ff37000200fa000000eb00f0bf9f00f7
:101b900060208000f0bf9f000dc8a9003003a9009d
:101ba0000080fa0000400600801f78000200fa0062
:101bb0000000eb00f0bf9f0070208000f0bf9f008e
:101bc0000de8a9003023a9000080fa004f0078003a
:101bd000004006000200fa000000eb00f0bf9f008a
:101be00080208000f0bf9f000e08a9003043a900ac
:101bf0000080fa00004006003200f8003400f800cf
:101c000010002000a0018800100020009001880032
:101c1000000000000200fa000000eb00f0bf9f008f
:101c200090208000f0bf9f0070208000f0bf9f00d8
:101c300090208000f0bf9f000e28a9003063a9000b
:101c40000080fa003400f9003200f900004006007c
:101c5000801f78000200fa000000eb00f0bf9f0038
:101c6000a0208000f0bf9f000e48a9003083a9008b
:101c70000080fa004f00780000400600801f7800c6
:101c80000200fa000000eb00f0bf9f00b0208000cf
:101c9000f0bf9f000e68a90030a3a9000080fa00e1
:101ca0004f00780000400600801f78000200fa0014
:101cb0000000eb00f0bf9f00c0208000f0bf9f003d
:101cc0000e88a90030c3a9000080fa004f007800f8
:101cd00000400600801f78000200fa000000eb00c0
:101ce000f0bf9f00d0208000f0bf9f000ea8a90089
:101cf00030e3a9000080fa004f00780000400600a1
:101d0000801f78000200fa000000eb00f0bf9f0087
:101d1000e0208000f0bf9f0012e8a9003103a90075
:101d20000080fa004f00780000400600801f780015
:101d30000200fa000000eb00f0bf9f00f0208000de
:101d4000f0bf9f001308a9003123a9000080fa000a
:101d50004f00780000400600801f78000200fa0063
:101d60000000eb00f0bf9f0000218000f0bf9f004b
:101d70001328a9003143a9000080fa004f00780021
:101d800000400600801f78000200fa000000eb000f
:101d9000f0bf9f0010218000f0bf9f001348a900f2
:101da0003163a9000080fa004f007800004006006f
:101db000801f78000200fa000000eb00f0bf9f00d7
:101dc00020218000f0bf9f001368a9003183a90083
:101dd0000080fa004f00780000400600801f780065
:101de0000200fa000000eb00f0bf9f0030218000ed
:101df000f0bf9f001388a90031a3a9000080fa005a
:101e00004f00780000400600801f78000200fa00b2
:101e10000000eb00f0bf9f0040218000f0bf9f005a
:101e200013a8a90031c3a9000080fa004f00780070
:101e300000400600801f78000200fa000000eb005e
:101e4000f0bf9f0050218000f0bf9f0013c8a90081
:101e500031e3a9000080fa004f007800004006003e
:101e6000801f78000200fa000000eb00f0bf9f0026
:101e700060218000f0bf9f0013e8a9003203a90091
:101e80000080fa004f00780000400600801f7800b4
:101e90000200fa000000eb00f0bf9f0070218000fc
:101ea000f0bf9f001408a9003223a9000080fa00a7
:101eb0004f00780000400600801f78000200fa0002
:101ec0000000eb00f0bf9f0080218000f0bf9f006a
:101ed0001428a9003243a9000080fa004f007800be
:101ee00000400600801f78000200fa000000eb00ae
:101ef000f0bf9f0090218000f0bf9f001448a90010
:101f00003263a9000080fa004f007800004006000c
:101f1000801f78000200fa000000eb00f0bf9f0075
:101f2000a0218000f0bf9f001468a9003283a9009f
:101f30000080fa004f00780000400600801f780003
:101f40000200fa000000eb00f0bf9f00b02180000b
:101f5000f0bf9f001488a90032a3a9000080fa00f6
:101f60004f00780000400600801f78000200fa0051
:101f70000000eb00f0bf9f0070208000f0bf9f00ca
:101f80001628a9000000000000000000000000006a
:101f90000080fa004f0078000040060000000000ba
:101fa00000000000000000001648a90000400600e4
:101fb0001668a900004006001688a9000040060027
:101fc0000268a900004006000288a900004006003f
:101fd0000008a9000040060003a8a9000040060070
:101fe00006c8a900004006003600f8000000000006
:101ff00040312100fb1707000728a9003600f9002f
:10200000004006000000000000000000000000008a
:102010000928a900004006003600f800809fbe0095
:10202000829fbe00849fbe00869fbe00000000000d
:1020300040312100eb1707000bc8a9004f03be0079
:102040004f02be004f01be004f00be003600f90037
:10205000004006000be8a900004006000c08a9009b
:10206000004006000c28a900004006000c48a9000a
:10207000004006000c68a900004006000c88a9007a
:10208000004006000ca8a900004006000068a90056
:102090000040060000e8a900004006000108a90071
:1020a000004006000368a900004006000388a9005c
:1020b000004006000040da000000fe0000000500bd
:1020c000889fbe008a9fbe008c1f78009600070084
:1020d0009d00330003866c006450e1002e00320046
:1020e0006420e100330032006150e1002f00320033
:1020f0006120e1003100320085855500eb07b0001a
:1021000009002000080420000500370008044400ee
:1021100089844c000a0031000603430087834b008a
:102120000001530081815b00f8ff33000203be0011
:102130000800a0000804440089844c00f6ff390020
:10214000c639dd0083017300010032001300200056
:102150008904d1000884d3000998a3000500320047
:102160000800a7000300a0008904d1000884d30060
:102170008b05e8008904d1000884d3000001eb003e
:102180000281d2002d00070001f0a1000cf0a70091
:1021900001f0a000750037006420e10077003200f4
:1021a0000801be000200be00f7ff37006120e10019
:1021b000720032006000b800f3ff3700000020001a
:1021c00001f82700f0ff37000001be0041000700c2
:1021d0000470a70003f0a10003f8a30013003a0065
:1021e0006509b10010003200090035006928e100de
:1021f000020035000100280000000500000040003a
:10220000818048008502e900fcff3a0000000600da
:10221000f88f4200050035008100d1000080d30016
:102220008502e800fcff3a00000006008000eb0099
:10223000000005006011b800970037008100200001
:10224000618055000b003d000b00200061fe2f0057
:102250000100e1001d003400828171006101640011
:102260008904d1000884d3000000e800faff3a0096
:102270007100200061006400030070000200600033
:102280000900320061044400e0844c000988a50084
:10229000050032008b05e8006808e10002003a0002
:1022a0008904d1000884d300f20f20000258e10015
:1022b00005003d00c75ddd00f907b20089807500ab
:1022c00008007800000006000bf827008b0078005b
:1022d00000000500c70ade00f107b200f50fb200ea
:1022e00008003200e1cf4200020032000170a0007d
:1022f00024000500810f7000010032000408050071
:1023000044000500810f700002003a00140005002f
:102310008502e9000000400081c04800fcff3b004e
:102320000170a000240005000004be00e9ff0700c2
:102330000003be000405be000200be00e5ff07006a
:10234000844f7500000006000200be006450e100ea
:10235000050036006420e100020036000968a30091
:1023600001003a000800be000160a0004f0678009e
:102370004f05be004f04be0000000600f0ff2f0016
:10238000f1ff2700f9ff3700889fbe008a9fbe003b
:102390008c1f7800e4ff0700ebff330003866c001e
:1023a0006450e100240032006420e1002700320084
:1023b0006150e100220032006120e1002100320082
:1023c0008b854200eb07b1000134b800003ab80039
:1023d0000804420089844a00013ab8000030b8007d
:1023e0008880400009014a000400330000004000da
:1023f00081804800020149008b05e900c909dd0020
:10240000830170000100320013002000c814de00b8
:102410004814dd004709de001200b200c808de00e3
:102420000884700085ff070001f0a1000cf0a700f0
:1024300001f0a000cdff37006120e100cfff3200a6
:102440000801be000200be00f7ff37006150e10046
:10245000fcff3a00c9ff37006022b80006022000e6
:102460000000d0008180d2000482d2008582d20098
:102470000000a0000202520083825a0003003100d3
:102480000202420083824a000000a1000603e90024
:10249000f3ff3a0000000600889fbe008a9fbe003e
:1024a0000082700004027100048271002600320074
:1024b0000004be000200be006011b8006b092000dd
:1024c000950220000182cf000a0039000541b100c9
:1024d0000082cf00070039000541b1000982cf001a
:1024e000040039000541b1000882cf000100390025
:1024f0000541b10005425200120032000a003b00c3
:1025000082817100610164008100d1000080d300ec
:102510008984d3000884d3008b05e8000442e800d6
:10252000f7ff3a00070037000804440089844c0094
:1025300000004800818048008b05e9000442e90062
:10254000f9ff3a003dff07004f05be004f04be00f3
:042550000000060081
:020000040000fa
:102554000600fa000000eb00d0bf9f00100020002e
:10256400d0bf9f005fb99700e80f510019003e00eb
:102574008000eb00f5ff200024c22000f3ff2300bd
:102584005fb89700e1bf9f00f1bf9f00e80f5000c4
:102594000a003e00050040004400dd00e0bf9f004b
:1025a4006fb897000000400004004000100178005c
:1025b400f2bf9f007fb99700030861005fb89700de
:1025c4000000e800d0bf9f005fb99700e80f5100fa
:1025d400ebff3600100020000080fa000000060027
:1025e400e10f500003003200e20f500008003200f7
:1025f40000000500f4ff2300848260000560880069
:1026040067016100126088002360880000000600f2
:10261400f0ff21000082600074608800670161009f
:10262400826088009360880010000500e10f50006c
:1026340003003200e20f50000300320000000500e6
:1026440021608800000006009160880010000500e9
:102654000200fa008000eb00f1bf9f00e10f500080
:1026640007003200e20f50000b0032000000eb00c4
:10267400f0bf9f007fb897000080fa0000000600ba
:1026840020608000f0bf9f007fb897000080fa00b0
:1026940000000600faff370091608000f1bf9f0040
:1026a4007fb897000080fa0000000600f4ff3700ae
:1026b4000200fa008002eb00f5bf9f00e80f500013
:1026c4001a003e004400dd0070005000f0bf9f007f
:1026d4007fb897000000400005c2200005004000bc
:1026e400f5fc2f00058860007fb8970000004000cb
:1026f40021c2200001004000020878007fb8970042
:102704000000400041c2200001004000030878009e
:102714007fb8970000004000a1c3200001004000e2
:10272400f1c32f00010862001500200005007800a5
:102734000080fa00000006000200fa008001eb00ad
:10274400f3bf9f00e80f500008003e004400dd0086
:1027540070005000f0bf9f00e18f5000060032006f
:102764008001eb00e28f50000c003200030078007f
:102774000080fa00000006007fb8970000004000c7
:1027840063c22000030040000208780001007800c2
:102794000080fa0000000600f7ff37007fb89700ba
:1027a40000004000e1c2200001004000020878005f
:1027b400100020000080fa0000000600eeff370041
:1027c4000400fa000001eb00e2bf9f00f2bf9f008b
:1027d400e80f500008003e004400dd007000500087
:1027e400e0bf9f00e18f5000060032000001eb00c3
:1027f400e28f50000e003200020078000080fa00e0
:10280400000006006fb897000000400061c220007d
:102814000100400010007800f0bf9f007fb99700ce
:10282400020078000080fa0000000600f5ff37007f
:102834006fb8970000004000e1c220000100400092
:1028440010007800f0bf9f007fb99700f4ff3700b5
:102854000200fa008001eb00f3bf9f00e80f500074
:1028640011003e004400dd0070005000f0bf9f00e6
:10287400e18f5000160032000e0031007fb897003f
:102884000000400081c220000100400002087800de
:102894007fb897000000400001c320000100400001
:1028a4000208780013002000030078000080fa007a
:1028b400000006008001eb00e28f5000f4ff3200bc
:1028c400030078000080fa0000000600f9ff3700da
:1028d4007fb897000000400083c22000030040003e
:1028e40002087800010078000080fa000000060069
:1028f400f0ff37000400fa008000eb00e1bf9f0006
:10290400f1bf9f00e80f500008003e00c400dd0046
:10291400f0805000e1bf9f00e10f5000060032003c
:102924008000eb00e20f50000e003200010078003e
:102934000080fa00000006006fb897000000400015
:1029440081c220000100400010007800f0bf9f0009
:10295400ffb89700010078000080fa00000006002c
:10296400f5ff37006fb897000000400001c3200056
:102974000100400010007800f0bf9f00ffb89700ee
:10298400f4ff3700e10f500003003200e20f500063
:10299400050032000000050082ff2f0082816000e4
:1029a400336088000000060080ff2f000081600073
:1029b400a2608800100005000200fa008000eb000d
:1029c400f1bf9f00e10f500007003200e20f5000fa
:1029d4000c0032000000eb00f0bf9f007fb89700ae
:1029e4000080fa000000060080ff2f00060cb600ed
:1029f400f0bf9f007fb897000080fa000000060037
:102a0400f9ff370080ff2f00140cb600f0bf9f00c1
:102a14007fb897000080fa0000000600f2ff37003c
:102a24000200fa000001eb00f2bf9f00e80f500023
:102a34000a003e004400dd0070005000f0bf9f001b
:102a44007fb8970000004000c2c32000020040008d
:102a540082ff20000288600012002000020078003b
:102a64000080fa00000006000400fa0080007800ec
:102a74000000eb00e0bf9f00f0bf9f00e88f500014
:102a84000b003e00c408dd00f0805000e1bf9f0051
:102a94006fb8970000004000c1c3200081004000cf
:102aa40080ff200011006000f0bf9f007fb89700f6
:102ab4000080fa00000006000400fa000002eb00a7
:102ac400e4bf9f00f4bf9f00e80f500024003e00c5
:102ad4004400dd0070005000e0bf9f006fb8970015
:102ae40000004000a4c2200004024000f0ff2300c4
:102af400000a61006fb9970002014100c4c22000be
:102b040004014100008961006fb897000000400093
:102b140002c220000200400010017800f2bf9f00b2
:102b240002042000828f500010003200020c2000aa
:102b3400828f50001d0032000100e00013003a00b3
:102b44007fb99700f1f32f0081006100f1bf9f006e
:102b54007fb99700f1fc2f000108610014002000e8
:102b6400040078000080fa0000000600ffb8970017
:102b74000170a100f1bf9f007fb99700f1fc2f0005
:102b84000108610014002000f5ff3700ffb897002a
:102b94000160a100f1bf9f007fb99700f1fc2f00f5
:102ba4000108610014002000edff37007fb9970091
:102bb400f1fc2f000108610014002000e8ff370039
:102bc4000200fa008001eb00f3bf9f00e80f500001
:102bd4000f003e004400dd0070005000f0bf9f0075
:102be4007fb8970000004000a3c22000830140008a
:102bf400f0ff230093086000ffb897008180400035
:102c0400c3c220008380400011096000130020002b
:102c1400030078000080fa00000006000200fa00b9
:102c24008002eb00f5bf9f00e80f500019003e0042
:102c34004400dd0070005000f0bf9f007fb8970093
:102c44000000400085c22000050040000108780013
:102c54007fb897000000400061c2200001004000de
:102c6400020878007fb8970000004000a1c220004d
:102c740081004000f0ff230080886100ffb89700c6
:102c840081804000c2c2200082804000800862002f
:102c940015002000050078000080fa0000000600fe
:102ca4000200fa008001eb00f3bf9f00e80f500020
:102cb4000e003e004400dd0070005000f0bf9f0095
:102cc4007fb897000000400083c22000030040004a
:102cd400010878007fb897000000400061c220001e
:102ce400010040000208780013002000030078006f
:102cf4000080fa00000006000200fa008002eb00e7
:102d0400e80f500019003e004400dd007000500040
:102d1400f0bf9f007fb897000000400085c22000ec
:102d240005004000010878007fb8970000004000cb
:102d340061c2200001004000020878007fb89700bb
:102d440000004000a1c2200081004000f0ff2300e9
:102d540080886100ffb8970081804000c2c22000d3
:102d64008280400080086200150020000500780081
:102d74000080fa00000006000200fa000002eb00e6
:102d8400f4bf9f00e80f500008003e004400dd003f
:102d940070005000f0bf9f00e18f50000600320029
:102da4000002eb00e28f50001100320004007800b2
:102db4000080fa00000006007fb897000000400081
:102dc40084c2200004004000020878007fb8970005
:102dd4000000400062c220000200400003087800a6
:102de400010078000080fa0000000600f2ff3700be
:102df4007fb897000000400001c32000010040009c
:102e0400020878007fb8970000004000e1c220006b
:102e14000100400003087800100020000080fa0040
:102e240000000600e4ff37000200fa000002eb0095
:102e3400e80f500015003e004400dd007000500013
:102e4400f0bf9f007fb897000000400044c32000fb
:102e540004004000f40b2f00048860007fb8970042
:102e64000000400021c320008100400080ff2f00ab
:102e740080086100ffb897008180400062c3200091
:102e840082804000808861001400200004007800e3
:102e94000080fa00000006000200fa000001eb00c6
:102ea400e80f50000a003e004400dd0070005000ae
:102eb400f0bf9f007fb897000000400042c320008d
:102ec40002004000f20b2f00028860001200200074
:102ed400020078000080fa00000006000200fa00f8
:102ee4008001eb00e80f500008003e004400dd00c4
:102ef40070005000f0bf9f00e18f500006003200c8
:102f04008001eb00e28f50000d00320003007800d6
:102f14000080fa00000006007fb89700000040001f
:102f240023c320000300400083ff2f000308610037
:102f3400010078000080fa0000000600f6ff370068
:102f44007fb897000000400061c3200001004000ea
:102f540081ff2f0001086100100020000080fa00aa
:102f640000000600ecff37000400fa000001eb004b
:102f7400e2bf9f00f2bf9f00e80f500008003e0030
:102f84004400dd0070005000e0bf9f00e18f50005e
:102f9400060032000001eb00e28f50000f00320007
:102fa400020078000080fa00000006006fb8970065
:102fb4000000400021c320008100400080ff2f005a
:102fc40011006000f0bf9f007fb9970002007800f5
:102fd4000080fa0000000600f4ff37006fb8970085
:102fe4000000400061c320008100400080ff2f00ea
:102ff40011006000f0bf9f007fb99700f3ff370016
:103004008000eb00e80f500009003e00e40f500080
:103014001000320008003e00e20f500011003200a0
:10302400220036006b47a9000000000011002000b8
:103034000100780000000600e60f50000d00320089
:10304400100031006b87a90000000000100005008b
:10305400f9ff37006b67a9000000000010000500ad
:10306400f5ff37006b27a9000000000010000500e1
:10307400f1ff37006ba7a900000000001000050055
:10308400edff3700e70f50000e003200e80f50004c
:103094000200320010000500e7ff37006be7a900cb
:1030a4000000000010000500e3ff3700e10f5000ae
:1030b400f8ff3a006b07a9000000000000000600ba
:1030c400ddff37006bc7a9000000000010000500f9
:1030d400d9ff37008000eb00e80f500009003e00e4
:1030e400e40f50001000320008003e00e20f5000d0
:1030f40011003200220036006b47a80000000000d7
:10310400110020000100780000000600e60f5000c6
:103114000d003200100031006b87a8000000000091
:1031240010000500f9ff37006b67a80000000000dd
:1031340010000500f5ff37006b27a8000000000011
:1031440010000500f1ff37006ba7a8000000000085
:1031540010000500edff3700e70f50000e003200ad
:10316400e80f50000200320000000500e7ff3700be
:103174006be7a8000000000010000500e3ff370023
:10318400e10f5000f8ff3a006b07a80000000000b0
:1031940000000600ddff37006bc7a8000000000038
:1031a40010000500d9ff37006127a900003b80000b
:1031b4004900de00610060006100100000000600ac
:1031c4006127a8001000050001eca8000060800041
:1031d4004f00de000000060001eca9000060800042
:1031e4004f00de0061001000000006000400fa0039
:1031f4000001eb00e2bf9f00f2bf9f00e80f500008
:1032040010003e004400dd0070005000e0bf9f004d
:103214006fb897000000400022c220000200400066
:1032240010017800f2bf9f00e18f500012003200bd
:1032340007003100ffb897000130b300010878009f
:1032440012002000020078000080fa00000006004e
:103254000001eb00e28f5000faff3a00ffb897003c
:103264000180a00001087800100020000080fa000e
:1032740000000600f6ff37007fb997000290a00017
:1032840002087800010078000080fa0000000600bf
:10329400efff37000400fa000001eb00e2bf9f00db
:1032a400f2bf9f00e80f500010003e004400dd0014
:1032b40070005000e0bf9f006fb89700000040000e
:1032c40022c220000200400010017800f2bf9f00db
:1032d400e18f500012003200070031007fb99700df
:1032e400f1cf2f00010861001200200002007800d5
:1032f4000080fa00000006000001eb00e28f50009d
:10330400faff3a00ffb897000180a1000108780095
:10331400100020000080fa0000000600f6ff3700cd
:103324007fb997000290a10002087800010078009c
:103334000080fa0000000600efff37000400fa00e6
:103344000001eb00e2bf9f00f2bf9f00e80f5000b6
:1033540010003e004400dd0070005000e0bf9f00fc
:103364006fb897000000400022c220000200400015
:1033740010017800f2bf9f00e18f5000120032006c
:10338400070031007fb99700f1ff230001086100b5
:1033940012002000020078000080fa0000000600fd
:1033a4000001eb00e28f5000faff3a00ffb89700eb
:1033b40001e0a10001087800100020000080fa005c
:1033c40000000600f6ff37007fb9970002f0a10065
:1033d40002087800010078000080fa00000006006e
:1033e400efff37000400fa000001eb00e2bf9f008a
:1033f400f2bf9f00e80f500010003e004400dd00c3
:1034040070005000e0bf9f006fb8970000004000bc
:1034140022c220000200400010017800f2bf9f0089
:10342400e18f500012003200070031007fb997008d
:1034340001002c0001087100120020000200780035
:103444000080fa00000006000001eb00e28f50004b
:10345400faff3a00ffb8970001e0a00001087800e5
:10346400100020000080fa0000000600f6ff37007c
:103474007fb9970002f0a0000208780001007800ec
:103484000080fa0000000600efff3700800078009b
:1034940010002000e88f5000010036000000eb000f
:1034a400000006000200fa008000eb00f1bf9f005c
:1034b400e05090008180fb00705190004811dd00c5
:1034c400028170001100200035003200e0519000ac
:1034d4008381fb00705190004811dd00028171006e
:1034e40092017800005a90000482fb001059900069
:1034f4004811dd000201720002816100f2bf9f00e9
:10350400e04190008381fb00704190004811dd0090
:103514000281710025003200e04190008381fb00ac
:10352400704190004811dd0002817100e10f4100fb
:1035340035003200604190000281fb00f0419000b0
:10354400c819dd0083017100f20f2000828f510041
:1035540042003200604190000281fb00f041900083
:10356400c819dd008301710002f02f00828f510021
:1035740046003200c04990008381fb00504990000e
:103584004811dd0002817100ffb99700830f5100db
:1035940016003200104190000254a000124098001e
:1035a400010078000080fa0000000600c049900085
:1035b4008381fb00504990004811dd0002817100b5
:1035c400ffb99700830f5100f2ff39008049900042
:1035d4008381fb00104990004811dd0002817100d5
:1035e400ffb99700830f5100170036001041900077
:1035f4000254a10012409800010078000080fa00f3
:1036040000000600e9ff3700c04990008381fb00f9
:10361400504990004811dd0002817100ffb9970004
:10362400830f5100dbff3e00804990008381fb0043
:10363400104990004811dd0002817100ffb9970024
:10364400830f5100e9ff39000000000001007800f9
:103654000080fa0000000600d4ff3700c049900043
:103664008381fb00504990004811dd000281710004
:10367400ffb99700830f5100c6ff3200104190003c
:103684000254a10012409800dbff37000000000044
:103694000000eb000080fa0000000600c3ff3700c2
:1036a4000600fa0011002000d1bf9f0010419000d5
:1036b4000268a3001d003a00104190000242b200cb
:1036c40044003200c04190008381fb0050419000cf
:1036d4004811dd000281710001014100c0419000e8
:1036e400424098004811de00d041900052409800ba
:1036f400404190000281fb00d0419000c819dd00d8
:1037040083017100604a90000482fb0070499000bc
:103714004811dd0002017200828f51003500310032
:103724005fb897000080fa00000006009040900007
:103734000158a3001e003a00404190000281fb00a2
:10374400d0409000c808dd00810071008100e800cd
:103754004041900041409800c808de00504190006c
:1037640051409800c04090008180fb00504190007f
:103774004811dd0002817000a04990008381fb00a4
:10378400b0489000c808dd0081807100810f5100ad
:10379400e3ff3900904090000164a10011409800bb
:1037a4005fb897000080fa0000000600dfff3700d2
:1037b400c04090008040eb00414098005041900090
:1037c400514098005fb897000080fa00000006009e
:1037d400d6ff3700c040900042409800d04090008f
:1037e400524098005fb897000080fa00000006007d
:1037f400ceff3700104190000264a00012409800f0
:103804000001eb00e2bf9f00f2bf9f002041900047
:10381400b04190000238a3002a003a00a040900072
:10382400304190000128a300030032004df0a800ad
:1038340051002000e1968800a040900030419000a3
:103844000118a300010032004dd0a800a040900050
:10385400304190000108a300010032004db0a800df
:10386400a0409000b04090000108a3000d00320079
:10387400205990000281fb00b0589000c808dd0078
:103884008100710007003200a05890008180fb0085
:10389400305890004800dd000080700000000100f6
:1038a400e0bf9f00efb897005fb89700808060008a
:1038b400d1bf9f005fb897000080fa0000000600a7
:1038c4009aff37004df0a80052002000e2968800cd
:1038d400405190000281fb00505090004800dd00f0
:1038e40000007100f0bf9f004a30ef005fb89700fe
:1038f40080806000d1bf9f00eeff37000200fa0015
:1039040010002000f0bf9f007fb897000080fa00ed
:10391400000006000400fa008000eb00e1bf9f00f5
:10392400f1bf9f00a0409000304190000138a300f7
:1039340025003a00a0409000304190000128a300e7
:10394400030032004df0a80051002000e1968800e9
:10395400a0409000304190000118a3000100320003
:103964004dd0a800a0409000304190000108a30071
:10397400010032004db0a800a0409000b04090007b
:103984000108a3000d003200205990000281fb00c1
:10399400b0589000c808dd008100710007003200b3
:1039a400a05890008180fb00305890004800dd0052
:1039b4000080700000000100e0bf9f006fb8970016
:1039c4000080fa00000006004df0a800510020001d
:1039d400e1968800c05090008180fb005050900018
:1039e4004800dd0000807000f0bf9f004a30ef0007
:1039f400100020000080fa0000000600f2ff3700eb
:103a04000400fa00f0bf9f000000eb00e0bf9f003d
:103a14007fb897000028a30002003a004c10e2008f
:103a2400100035007fb897000018a30002003a0088
:103a34004dd0ab0009003a007fb897000008a300fe
:103a440003003a004db0ab00010032004db0a900b4
:103a54006fb897000080fa00000006004dd0a9005e
:103a6400f5ff37004df0a900eeff37000c00fa0017
:103a7400889fbe000000eb0080bf9f0090bf9f00a6
:103a840010002000a0bf9f000000eb0080bf9f003b
:103a9400818280000fb89700808f50000f0036009d
:103aa40008372100880478000fb897000000400010
:103ab4000000440010007800104090000004e00072
:103ac400210035000fb897000000e80080bf9f0078
:103ad4000fb89700810f5000f3ff39001fb897000b
:103ae4008000eb00d1bf9f000028a30002003a0031
:103af4004c10e200140135000018a30002003a0043
:103b04004dd0ab000e013a000008a30003003a00b8
:103b14004db0ab00010032004db0a900dfb89700f2
:103b24002fb8970000806000a0bf9f00e09680003f
:103b3400e50f5000c80032002fb897004f04be00b4
:103b44000080fa00000006000fb897000000400053
:103b540000804400100078008000eb00b1bf9f009b
:103b6400e05090008180fb00705190004811dd000e
:103b7400028170001100200026003200e051900004
:103b84008381fb00705190004811dd0002817100b7
:103b940092017800005a90000482fb0010599000b2
:103ba4004811dd000201720002816100b2bf9f0072
:103bb400e04190008381fb00704190004811dd00da
:103bc4000281710076003a00404990000281fb00b6
:103bd400d0499000c819dd00830171003fb99700f6
:103be400828f51008d003900004990000281fb0052
:103bf40090499000c819dd00830171003fb9970016
:103c0400828f5100e2003600104190000254a1005e
:103c1400124098002fb8970080806000a1bf9f00d9
:103c24000fb8970000004000000044001000780026
:103c340011002000b1bf9f00104190000268a30052
:103c440039003a00104190000242b2007d00320077
:103c5400c04190008381fb00504190004811dd0079
:103c64000281710001014100c0419000424098006e
:103c74004811de00d041900052409800404190002d
:103c84000281fb00d0419000c819dd00830171005e
:103c9400604a90000482fb00704990004811dd00e6
:103ca40002017200828f510074003100bfb8970086
:103cb4002fb8970000806000a0bf9f000fb8970046
:103cc4000000400000004400100078001040900004
:103cd4000068a3000c0032000fb8970000004000f9
:103ce4000080440010007800a04090008180fb0018
:103cf400304090004800dd00008070009fb89700bd
:103d04000100700090bf9f00818280000fb897006f
:103d14000000e80080bf9f000fb89700810f50009b
:103d240061ff39006dff3700904090000158a300f7
:103d34003e003a00404190000281fb00d0409000d8
:103d4400c808dd00810071008100e8004041900056
:103d540041409800c808de0050419000514098004e
:103d6400c04090008180fb00504190004811dd006c
:103d740002817000a04990008381fb00b04890004c
:103d8400c808dd0081807100810f5100c7ff390030
:103d9400904090000164a10011409800c3ff3700d7
:103da400e04190008381fb00704190004811dd00e8
:103db40002817100e10f4100650032006041900012
:103dc4000281fb00f0419000c819dd0083017100fd
:103dd400f20f2000828f51006f003200604190008a
:103de4000281fb00f0419000c819dd0083017100dd
:103df40002f02f00828f5100810032004049900070
:103e04000281fb00d0499000c819dd0083017100d4
:103e14003fb99700828f51007bff32001041900020
:103e24000254a000124098007aff3700c04090006e
:103e34008040eb0041409800504190005140980070
:103e44009aff3700c040900042409800d040900054
:103e54005240980095ff37004c10e20036ff3500c1
:103e640030002000e09688002fb897004f04be0071
:103e74000080fa000000060033ff37001041900074
:103e84000264a000124098000001eb00c2bf9f0032
:103e9400d2bf9f0020419000b04190000238a3009f
:103ea40049003a00a0409000304190000128a3004e
:103eb400030032004df0a80051002000e196880074
:103ec400a0409000304190000118a300010032008e
:103ed4004dd0a800a0409000304190000108a300fc
:103ee400010032004db0a800a0409000b040900006
:103ef4000108a3000d003200a05890008180fb004f
:103f0400305990004811dd008280700007003200b3
:103f1400a05890008180fb00305890004800dd00dc
:103f24000080700000000100c0bf9f00cfb8970060
:103f34003fb8970080806000b1bf9f005bff3700ef
:103f44004dd0a900f0fe37004df0a900eafe37007d
:103f5400404990000281fb00d0499000c819dd005f
:103f6400830171003fb99700828f5100abff3e007f
:103f7400004990000281fb0090499000c819dd00bf
:103f8400830171003fb99700828f51001eff3900f1
:103f9400000000001fff3700404990000281fb0031
:103fa400d0499000c819dd00830171003fb9970022
:103fb400828f510099ff3200104190000254a100f9
:103fc4001240980013ff37004df0a8005200200063
:103fd400e2968800405190000281fb00505090000e
:103fe4004800dd0000007100d0bf9f004a30ef00a0
:103ff4003fb8970080806000b1bf9f002bff37005f
:10400400000000008000eb0002ff37000e00fa0001
:104014000000eb00a0bf9f00b0bf9f0000000000a5
:104024000000000000000000f18e80000108a300e1
:1040340014003a00e08180008000e800e1818800fb
:10404400011a2000810f500075003200f08e8000ac
:104054000018a30008003200e09180000000e00096
:1040640005003a00d18180000101e800d281880076
:10407400e18f5000570132002fb897000080fa00fa
:1040840000000600c0bf9f00818c8000c808de00cd
:10409400f30f20002219210092816100c819dd006c
:1040a40083817000e0bf9f00f0bf9f008040eb0061
:1040b400a1f79f00d0bf9f005fb89700830f500007
:1040c400210031000201e8000002eb0011002a0087
:1040d40012407800a0f79f0032407800efba9700b2
:1040e4000080fb0005006800e0bf9f00f4bf9f0054
:1040f4007fb89700e70f50000d003e006fb897009f
:104104000008a3003c0032006fb897000000d10003
:1041140001006800e0bf9f007fb897000000e8003e
:10412400f0bf9f007fb89700e70f5000f3ff360001
:104134005fb897000000e800d0bf9f005fb8970009
:10414400830f5000e2ff3900efb89700c1bf9f0012
:10415400908d80004800de00f10f2000421b2100fa
:1041640092806000c808dd00810070004fb897009d
:10417400808f5000ec003200d1918000a1bf9f00dd
:10418400afb89700100020000100e000bbff320030
:10419400708c80004800de00f10f2000021921001d
:1041a40092806000c808dd0081007000d01d2000ee
:1041b400808f5000ea003200a02321000008eb00a9
:1041c400708c8000f00fb200708c8800818c8000ad
:1041d40000f02f0000806000808c8800e081800067
:1041e4008000e800e1818800011a2000810f50005e
:1041f40096ff3a000a0037006fb897000000d1001c
:10420400e0bf9f007fb897000000e800f0bf9f0068
:104214007fb89700e70f5000b8ff3600c4ff37009f
:1042240010002000e09188003c30ef00f08e800008
:104234000010a100f08e8800b08d8000f00fb20055
:1042440001c0240000807000b08d8800c08d800003
:1042540001f02f00010060003004b300c08d88001d
:10426400c08d8000f00fb20000a0a000c08d8800b7
:10427400a31b2100d08d800081006000d18d8800b7
:10428400509880004800de000301e80000497800ef
:10429400519880000200e80001487800f181800014
:1042a400c808de000280e80001487800f18180003f
:1042b4000000e80001487800c08d80004800de005e
:1042c400f40f2000130262004822dd000402700093
:1042d4000000eb00d0bf9f00f0bf9f008040eb00c8
:1042e400a1f79f00e0bf9f006fb89700840f5000b4
:1042f400200031008002eb0011002a0012407800f7
:10430400a0f79f00324078005fbb97000080fb005d
:1043140006006800d0bf9f00f5bf9f007fb89700dc
:10432400e70f50000d003e005fb897000008a3009f
:104334009e0032005fb897000000d10001006800c1
:10434400d0bf9f007fb897000000e800f0bf9f0037
:104354007fb89700e70f5000f3ff36006fb897005f
:104364000000e800e0bf9f006fb89700840f500082
:10437400e2ff3900dfb89700f40f20004809dd00a0
:10438400d08e8000f00fb20000007100d08e880043
:10439400c808de00e28e800000f02f0000006100fb
:1043a40000807000e08e8800e2202100a0cab300e3
:1043b40000497800b08d8000801b210090026200cb
:1043c4008200e80085487800b18d8000c808de00ce
:1043d400100062000280e80001487800c08d80006f
:1043e40013006200e3034100804b7800c08d80001d
:1043f4004800de009300620064034100004b780033
:104404000000eb00b0bf9f00c08d80004800de00bc
:1044140093006200c808dd00810070003fb8970077
:10442400808f500012003600651821003fb89700b5
:10443400bfb897008180420000004100d170900015
:10444400514098003fb897000000e800b0bf9f00bb
:10445400c08d80004800de0093006200c808dd00c3
:10446400810070003fb89700808f5000efff3e003e
:10447400c18d8000c808de00f00f20001302600028
:104484004822dd0004827000d18e8000c11d21000d
:10449400910260000402410055429800c48d8000de
:1044a4004822de0093026000c82add008502720003
:1044b400d48e80004822de00910060008500410017
:1044c400e4409800c18d8000c808de00130060003d
:1044d4004800dd000080700000014100d0c0b3003e
:1044e4007041980097407800c808dd001680fb00f2
:1044f40001007000b0918800802321000008eb00c7
:10450400640040000008eb00f08e80000010a00062
:10451400f08e88003e30ec00f08e80000018a3007e
:10452400d5fe3200ccfe3700f08e80000000a100e2
:10453400f08e880010002000d0918800f08e80005a
:10454400308c8800d1918000a1bf9f00afb8970044
:10455400100020000100e0000dff3a00c7fe370004
:10456400a1718000c408de008180ea00e18060005f
:10457400c408dd00a07180000040a100008070002c
:10458400a0718800a02321000008eb00708c80003b
:10459400f00fb200708c8800818c800000f02f0036
:1045a40000806000808c88000cff37005fb89700a3
:1045b4000000d100d0bf9f007fb897000000e80042
:1045c400f0bf9f007fb89700e70f500056ff3600fa
:1045d40062ff37003a30ef00e1bf9f00f0bf9f0059
:1045e400723821002322ab00050032007fb8970007
:1045f4008000e800f1bf9f00820f5000f9ff3600f1
:10460400ffb8970070382100808f500005003600f5
:104614000000eb00e0bf9f006fb897002fb8970031
:1046240096fe3700c0918000e12021008100400007
:10463400914078000000e800c0918800608c800000
:104644007a020700efb8970001006000e0bf9f0006
:10465400c191800010212100104178004811dd0033
:104664000000e8001080fb000200700068004000b9
:10467400808f5000e8ff3600802321000008eb0003
:10468400f08e80000010a100f08e88001000200041
:10469400e09188006fb89700e0ff37000400fa004b
:1046a4000000eb00e0bf9f00f0bf9f00110020005e
:1046b400618c880002102e0003002000428c8800c8
:1046c400538c8800a12021008008eb00e102b00097
:1046d4008008eb00f0bf9f007fb8970071022000b4
:1046e400810f50000a003e00021e21007fb897008f
:1046f400000041000048eb007fb897000000e8008c
:10470400f0bf9f007fb89700810f5000f7ff36007d
:104714000000eb00f0bf9f007fb8970072022000fa
:10472400e1202100820f500009003e007fb897006d
:10473400008040000048eb007fb897000000e800cc
:10474400f0bf9f007fb89700820f5000f7ff36003c
:10475400a0cab30080487800d1c0b3005023210020
:1047640001487800b5110700e0bf9f001000200049
:10477400e09188006fb897000080fa0000000600fe
:104784000400fa0010002000e0bf9f000000eb00ce
:10479400f0bf9f00723821002322ab0005003200d5
:1047a4007fb897008000e800f1bf9f00820f50009f
:1047b400f9ff3600ffb8970070382100808f500051
:1047c400050036000000eb00e0bf9f006fb89700c3
:1047d4000080fa0000000600c0918000e120210062
:1047e40081004000914078000000e800c0918800fa
:1047f400608c80000d020700efb897000100600094
:10480400e0bf9f00c1918000102121001041780079
:104814004811dd000000e8001080fb000200700079
:1048240068004000808f5000e8ff3600802321009c
:104834000008eb00f08e80000010a100f08e8800cc
:1048440010002000e09188006fb897000080fa0003
:1048540000000600e0ff37000a00fa000000eb0049
:10486400c0bf9f00818c8000c808de00f30f2000c9
:104874002219210092816100c819dd008381700032
:10488400d0bf9f00e0bf9f008040eb00e1f79f0096
:10489400f0bf9f007fb89700830f500021003100c4
:1048a4000201e8000002eb0011002a001240780027
:1048b400e0f79f0032407800dfba97000080fb00e9
:1048c40005006800d0bf9f00e4bf9f006fb8970049
:1048d400e70f50000d003e005fb897000008a300ea
:1048e4001f0032005fb897000000d100010068008b
:1048f400d0bf9f006fb897000000e800e0bf9f00a2
:104904006fb89700e70f5000f3ff36007fb89700a9
:104914000000e800f0bf9f007fb89700830f5000ad
:10492400e2ff3900dfb89700c1bf9f00908d80007f
:104934004800de00f10f2000421b2100928060003d
:10494400c808dd00810070004fb89700808f5000c8
:104954000d003200d09180000080fa0000000600b3
:104964005fb897000000d100d0bf9f006fb89700d8
:104974000000e800e0bf9f006fb89700e70f500009
:10498400d5ff3600e1ff3700f08e80000000a10063
:10499400f08e880010002000d0918800f08e8000f6
:1049a400308c8800d09180000080fa00000006005e
:1049b400ebff3700708c80004800de00f10f200010
:1049c4000219210092806000c808dd008100700097
:1049d400d01d2000808f500001003200000005002f
:1049e400a1718000c408de008180ea00e1806000db
:1049f400c408dd00a07180000040a10000807000a8
:104a0400a0718800100005000a00fa00f1bf9f00a1
:104a14008000eb00c1bf9f00d1bf9f000041eb00ad
:104a2400e2f79f00e1bf9f006fb99700ffb89700be
:104a3400810f5100210031000002eb0012002a0016
:104a440090407800e1f79f00b0407800cfb997001c
:104a54008180fb0083806800c1bf9f00d4bf9f009a
:104a6400dfb89700e78f50000d003e00cfb89700e5
:104a74000108a30014003200cfb897008100d100d0
:104a840082806800c1bf9f00dfb897008100e80002
:104a9400d1bf9f00dfb89700e78f5000f3ff3600c7
:104aa400efb897008100e800e1bf9f00efb99700dd
:104ab400ffb89700818f5100e1ff39004fb897008c
:104ac4000080fa0000000600cfb897008100d100f2
:104ad400c1bf9f00dfb897008100e800d1bf9f00ed
:104ae400dfb89700e78f5000e0ff3600ecff370097
:104af4000200fa008001eb00f3bf9f00e20f5000b8
:104b04000a003e004300dd0068005000f0bf9f0033
:104b1400f0bf2300808160000311880010ce2e00b6
:104b24008000610011118800130020000300780048
:104b34000080fa00000006000a00fa00889fbe0008
:104b44008a1f7800000578000204be000000eb0014
:104b540080bf9f0090bf9f006011b800a2bf9f005c
:104b6400b3bf9f00e20f55003f003e004350dd00fd
:104b74006800500080bf9f000100e0003e003a0042
:104b8400e10f52006c003200bd0031000500e0006e
:104b940046003200e18f520039003a001fb89700f6
:104ba4000000a00090bf9f004449dd00cc41de001e
:104bb400830171004441dd00502c2600f1412000a6
:104bc400c6bf9f0023f607000000e9008000eb0049
:104bd400a0bf9f00b1bf9f002fb89700bfb8970038
:104be4004fbb9700e20f4000e08f580041003e00a9
:104bf400e10f55007c003200e20f550054003200f2
:104c04000fb89700000040008122200001004000fe
:104c14002fb99700bfb99700020878000fb8970022
:104c24000000400001222000010040001fb997004d
:104c3400f1bf23008100610001f0a00001087800a9
:104c44000fb897000000400021222000010040001e
:104c54001fb99700118e2e008100610001a0a000f1
:104c640001087800100020004f0578004f04be00b2
:104c74000080fa0000000600e18f500006003200b8
:104c84000000eb004f0578004f04be000080fa00de
:104c940000000600f8ff37001fb897006000b3005b
:104ca40090bf9f000500e000baff3a004449dd00d0
:104cb400cc41de00830171004441dd00502c26000c
:104cc400f1412000c6bf9f00e2f507000000e900a3
:104cd4008000eb00a0bf9f00b1bf9f002fb89700da
:104ce400bfb897004fbb9700e20f4000e08f580019
:104cf400bfff36004249dd00ce41de008301710072
:104d04004241dd00502c2600f1412000c6bf9f0027
:104d1400d0f507000000e9008000eb00a0bf9f0071
:104d2400b1bf9f001fb897000030a00090bf9f0044
:104d34004fbb9700aeff37001fb897000020a000bc
:104d440090bf9f000500e000d8ff320091ff3700bc
:104d540003c8a900670063004800dd00f18f2f003d
:104d6400724280008280600081007000714288007d
:104d74000600e0006600320023c8a8000fb89700c0
:104d84000000400081222000010040002fb997005c
:104d9400bfb99700020878000fb8970000004000e0
:104da40001222000010040001fb99700f1bf230039
:104db4008100610001f0a000010878000fb897009d
:104dc4000000400021222000010040001fb997008c
:104dd400118e2e008100610001a0a000010878005e
:104de40010002000a0ff37000168a90067006300dd
:104df4004c00dd00f1ff2800234280008380600026
:104e040081007000214288000600e0002400320086
:104e14002168a8000fb897000000400081222000fc
:104e2400010040002fb99700bfb99700020878002d
:104e34000fb897000000400001222000010040004c
:104e44001fb99700f1bf23008100610001f0a000a9
:104e5400010878000fb897000000400021222000cc
:104e6400010040001fb99700118e2e0081006100df
:104e740001a0a00001087800100020007aff37008c
:104e8400e20f52007eff3a001fb897000010a00006
:104e940090bf9f000500e00084ff32003dff370013
:104ea4002168a9000fb8970000004000812220006b
:104eb400010040002fb99700bfb99700020878009d
:104ec4000fb89700000040000122200001004000bc
:104ed4001fb99700f1bf23008100610001f0a00019
:104ee400010878000fb8970000004000212220003c
:104ef400010040001fb99700118e2e00810061004f
:104f040001a0a000010878001000200056ff37001f
:104f140023c8a9000fb89700000040008122200098
:104f2400010040002fb99700bfb99700020878002c
:104f34000fb897000000400001222000010040004b
:104f44001fb99700f1bf23008100610001f0a000a8
:104f5400010878000fb897000000400021222000cb
:104f6400010040001fb99700118e2e0081006100de
:104f740001a0a00001087800100020003aff3700cb
:104f84000800fa00f0bf9f000000eb00c0bf9f00c4
:104f9400d0bf9f00e0bf9f00ffb89700e28f500092
:104fa40020003e007fb897004300dd0068005000f9
:104fb400c0bf9f004fb8970000004000212220008e
:104fc400010040001000780000c0a100d0bf9f0085
:104fd400723821005fb897000008a30005003a006a
:104fe4006fb897008000e800e1bf9f00820f500077
:104ff400f8ff36006fb997000040eb0071382100cc
:10500400810f510007003e004fb897000000400098
:10501400612220000100400010007800d0bf9f00f2
:105024005fb897000080fa00000006000600fa004e
:105034000001eb00d2bf9f00e2bf9f00f2bf9f00c0
:10504400e20f50001f003e004300dd0068005000e6
:10505400d0bf9f005fb897000000400022222000cc
:10506400020040001000780000c0a100e0bf9f00d3
:10507400733821006fb897000098a3000500320030
:105084007fb897000001e800f2bf9f00830f500033
:10509400f8ff3600ffb997000001eb0070382100db
:1050a400808f510007003e005fb897000000400069
:1050b40042222000020040008180fb0001087800a9
:1050c40012002000020078000080fa0000000600b0
:1050d4000600fa00f0bf9f000000eb00d0bf9f0065
:1050e400e0bf9f00ffb89700e28f50000c003e0025
:1050f4007fb897004300dd0068005000d0bf9f00d8
:105104005fb8970000004000212220000100400009
:105114001000780000c0a100e0bf9f006fb89700a6
:105124000080fa00000006000400fa008000780005
:105134000000eb00e0bf9f00f0bf9f00e28f500033
:105144000b003e00c308dd00e8805000e1bf9f0073
:105154000011800000f0a000f0bf9f00ffb897008e
:10516400f0bf2b00008160000211880010002000b5
:105174000080fa00000006000400fa0080007800b5
:105184000000eb00e0bf9f00f0bf9f00e28f5000e3
:105194000b003e00c308dd00e8805000e1bf9f0023
:1051a400f0bf23002002b600f0bf9f00ffb89700b5
:1051b400f0bf2b0000816000021188001000200065
:1051c4000080fa00000006000200fa008000780067
:1051d4000000eb00f0bf9f00e28f500006003e008d
:1051e400c308dd00e8805000f1bf9f002022ef00db
:1051f4002222ef00100020000080fa0000000600c8
:105204008000eb00e20f500006003e00e10f50006a
:105214000600320011002000e20f500001003a00a5
:1052240060c7a900010078000000060060a7a9007b
:1052340000000600fdff37008000eb00e20f500085
:1052440006003e00e10f500006003200110020006d
:10525400e20f500001003a0060c7a8000100780086
:105264000000060060a7a80000000600fdff37004c
:105274000200fa000000eb00f0bf9f00c1302100e3
:10528400818388008081eb00938388006022b800ca
:10529400548388006583880070838800f0828800c6
:1052a400038388002103200031838800120020003a
:1052b40042838800410620001183880022838800ed
:1052c400c10521001100a1001110a0001120a100ae
:1052d4001130a1001180a100a0838800b083880050
:1052e4008180e9001100a1001110a0001120a0008c
:1052f4001130a10011e0a00011d0a00011f0a00015
:10530400f2bf9f00812e210071848800838488006d
:10531400140020000500200044848800558488007f
:1053240062848800e083880001f02f00f183880004
:1053340022848800328488000084880012848800d3
:10534400a10721001100a1001110a0001120a1004b
:105354001130a1001180a10090848800a0848800ed
:105364008180e9001100a1001110a0001120a1000a
:105374001130a10011e0a00011d0a00011f0a00094
:10538400ffba970082826200f5bf9f00413021007e
:1053940061858800738588002400200005002000b2
:1053a40034858800458588002100200051858800c7
:1053b400d0848800e0848800e12f21001103780064
:1053c40091027800c32ade00240a2100050a530052
:1053d4002285880091027800110278004222de00c2
:1053e400e109210084885200a4002000048588007b
:1053f400e68050001100a1001110a0001120a100ae
:105404001130a1001180a10080858800908588005a
:105414008180e9001100a1001110a0001120a10059
:105424001130a10011e0a00011d0a00011f0a000e3
:10543400ffb8970082806000f1bf9f000136210011
:105444005186880001002200618688003600200011
:105454000700200026868800378688003100200057
:1054640041868800c0858800f50f2000d585880016
:105474000286880014868800e0858800f18588000b
:10548400610b21001100a1001110a1001120a00046
